:020000040800F2
:100000007804002029140008B1130008B313000875
:10001000B5130008B7130008B9130008000000006A
:10002000000000000000000000000000BB130008FA
:10003000BD13000800000000BF130008C113000832
:1000400055140008591400085D14000861140008D4
:1000500065140008691400086D1400087114000884
:1000600075140008791400087D1400088114000834
:1000700085140008891400088D14000891140008E4
:1000800095140008991400089D140008A114000894
:10009000A5140008A9140008AD140008B114000844
:1000A000B5140008B9140008BD140008C1140008F4
:1000B000C5140008C9140008CD140008D1140008A4
:1000C000D5140008D9140008DD140008C513000871
:1000D000E1140008E5140008E9140008ED14000814
:1000E000F1140008F5140008F9140008FD140008C4
:1000F0000115000805150008091500080D15000870
:1001000000000000000000000000000011150008C1
:1001100015150008191500081D15000821150008FF
:1001200025150008291500082D15000831150008AF
:100130003515000839150008000000000000000017
:100140003D15000841150008451500080000000095
:10015000000000000000000000000000000000009F
:100160000000000000000000491500084D150008BF
:100170005115000800000000000000000000000011
:10018000000000005515000870B5040001D10120E1
:1001900070BD0020A06204F15C05687820B90021E0
:1001A0002970204600F068FA0220687000F047FAD3
:1001B000E168B1F5E06F04D90022B1F5706F03D1A9
:1001C00004E04FF4805201D00020A062206B30B9CF
:1001D000B1F5E06F87BF02202063012121636368CE
:1001E000A06821692668034360690B43A169034342
:1001F00001F40071E0690B43216A0343A06A0B43D9
:1002000003433360A369606A616B1B0C03F0040352
:100210000343E0680B4303431A4323685A60206892
:10022000C16921F40061C161002068600121697029
:1002300070BD2DE9F843044604F144060027307EE2
:1002400001280D469146984608BF022000F0AA807A
:100250000120307600F04EFA717E012918BF022786
:100260004ED1290018BFB9F1000F00F0958003228C
:100270007276F761A163A4F83C90A4F83E902764DD
:1002800037807780F760B760A268B2F5004F04D17D
:100290002268136843F480431360226813685D0684
:1002A00000F082F840F20175E3686268AB4228D33F
:1002B000002A1CBFE28F012A06D1226831F8023BD6
:1002C000D360E38F5A1EE2878946054605E039F878
:1002D000021BC160E08F411EE187E08F002849D0FA
:1002E000206881688A07F2D4B8F1000F07D018F1AE
:1002F000010FF2D000F0FEF9401B4045EDD303277B
:100300004BE0002A1CBFE28F012A09D12268E38F4B
:10031000022B08D331F8025BD560E28F931EE3878E
:10032000894605460BE011F8015B1573E28F531EF9
:10033000F5E739F8021BC160E08F811EE187E08F8D
:10034000C0B1206881688A0708D5E18F0229F0D200
:1003500019F8012B0273E08F411EEFE7B8F1000F8F
:10036000CDD018F1010FEAD000F0C4F9401B404590
:10037000E5D3C4E72A46414600F01EF808B1202024
:10038000F061A06830B900972168CA680092896856
:100390000091009AF06900B10127012070760021D8
:1003A00031763846BDE8F28303D4136843F0400346
:1003B0001360704702466421204600F025B97CB5E1
:1003C000044622685168936803F04100012806D171
:1003D000480604D5E16C2046BDE87C4008479807F4
:1003E00006D50D0604D5216D2046BDE87C400847A2
:1003F00013F4B07F5CD088065AD55D060ED594F80C
:100400005D00032847D0206E40F0040020660025E0
:100410000095D66800969568009500989D060CD5C5
:10042000206E40F001002066002500959668009639
:10043000106820F040001060009AD80509D5226E9F
:1004400042F0080222660020009022689068009026
:10045000009A206E60B32068426822F0E002426099
:10046000012011F0030F84F85D001CD020680FF20A
:1004700045054168890889004160A06D18B1456350
:10048000A06D00F03DF9606D90B14563606DBDE811
:10049000764000F035B900200090D1680091926854
:1004A0000092009873BD2046BDE8764000F04DB93B
:1004B00073BD0000406A00F13E0100220A810A80FB
:1004C00000F043B92DE9F041069F05460E469046DF
:1004D0001C46286881683140B1420CBF01200020D1
:1004E000404530D014F1010FF3D024B100F002F9EF
:1004F000C01BA042EDD32868416821F0E0014160B3
:100500006868B0F5827F0BD1A868B0F5004F18BFBE
:10051000B0F5806F04D12868016821F040010160C6
:10052000A86AB0F5005F09D12868016821F400517C
:1005300001602868026842F40052026005F15C0024
:1005400000F04FF800E00020BDE8F0812DE9FC410B
:10055000089F0646884614461D463068816808EAAA
:100560000101A1423AD0B8F5C06F08BF002C04D1F8
:10057000007B8DF800009DF8001015F1010FECD004
:1005800025B100F0B7F8C01BA842E6D33068416837
:1005900021F0E00141607068B0F5827F0BD1B06856
:1005A000B0F5004F18BFB0F5806F04D13068016816
:1005B00021F040010160B06AB0F5005F09D13068F8
:1005C000016821F4005101603068026842F4005271
:1005D000026006F15C0000F004F800E00020BDE8D5
:1005E000F6810121417000220270032070470096BD
:1005F0002B4600228021204664E700962B460022ED
:100600004FF4C0612046A1E77CB50D46164604466E
:1006100000962B4600224FF4C051FFF797FF28B9F0
:10062000FFF7E5FF10B9FFF7E8FF08B100F001F8A8
:1006300076BD206E40F020002066032070472068C1
:10064000016821F04001016070470000264881B038
:10065000016841F001010160026802F001020092AC
:100660000099426842F080524260406800F0805039
:100670000090009801B0704738B586B0044601A8D4
:10068000142100F063F82468184DAC4229D11848B1
:10069000416841F480514160416801F4805100910A
:1006A0000099026842F400320260E021006800F420
:1006B00000300090022200980191029200210391E3
:1006C000032205210591049201A94FF0904000F00A
:1006D0005DF800220021232000F054F9232000F0CF
:1006E0006EF907B030BD0000181002400030014024
:1006F0001410024001484068704700BF000000200D
:1007000038B590F821100024022900F1340203D0FA
:1007100004205060012416E001680B6823F00E03EA
:100720000B60012301680D686D086D000D60D168D4
:1007300095688B406B60012180F8211080F8204083
:10074000116801B18847204632BD7047002200F091
:1007500061B930B4002513E050F8042BD30744BF2F
:10076000A9F101039A18091F042942F8045BFAD27F
:1007700013468C0744BF15809B1CC90748BF1D70DA
:1007800050F8041B0029E7D130BC70472DE9F84729
:100790000026684A0F230446884632E0664DAC4284
:1007A00014BF052504258D4045EA0E054CF8275059
:1007B000C74362490D6800F0B3F8ED0348BF40EA53
:1007C0000C0CC1F800C04D6800F0AAF8AD0348BF9A
:1007D00040EA0C0CC1F804C08D6800F0A1F8ED02ED
:1007E00048BF40EA0C0CC1F808C0CD6807EA050C08
:1007F000D8F80470BD0248BF40EA0C0CC1F80CC028
:10080000761CD8F8001031FA06F000F08780012736
:10081000B74017EA0100F3D0D8F80450B100022D18
:1008200018BF122D12D1F50804EB850C01F01C0540
:10083000DCF820E0D8F810A003FA05F92EEA090E3A
:100840000AFA05F545EA0E05CCF820504FEA460CA9
:100850004FF0030E256898F804900EFA0CFE6FEA2C
:100860000E0E09F003090EEA050509FA0CF949EA2A
:1008700005052560D8F80450012D18BF022D03D0BE
:10088000112D18BF122D13D1A568D8F80C900EEABF
:10089000050509FA0CF949EA0505A560656825EA28
:1008A0000707D8F80450C5F30015B5402F4367601B
:1008B000E7680EEA0705D8F8087007FA0CF73D4319
:1008C000E560D8F80450EF009AD51568DFF870C0DD
:1008D00045F00105156001F00C01176807F00107EC
:1008E000009703FA01FE009FB7085CF8275025EA3D
:1008F0000E0EB4F1904F08BF00250ED0114DAC4242
:1009000008BF012509D0104DAC4208BF022504D014
:100910000E4DAC427FF442AF032544E7BDE8F187BA
:1009200007EA050CD8F8045070470AB18161704796
:100930008162704718100240001000480004014016
:10094000080001400004004800080048000C00486E
:100950000901020006D5294A00F00F00104400F8F2
:10096000041C7047264B19547047264B19684FF6E4
:10097000FF020002114000F4E060084322490843EE
:100980001860704738B51F4B1C68C4F30223C3F1CD
:100990000704052C28BF04241D1D072D34BF002388
:1009A000DB1E012505FA04F4641E2140994005FA76
:1009B00003F35B1E1A401143BDE83440C8E701222F
:1009C00000F01F01114BFFE78A40400943F8202047
:1009D000704710B5401EB0F1807F01D3012010BDDB
:1009E0000B4C60600F214FF0FF30FFF7B1FF00218B
:1009F000A16007202060002010BD000018ED00E07D
:100A000000E400E00CED00E00000FA0500E100E089
:100A100010E000E000B500BF130096469446103980
:100A200028BFA0E80C50FAD85FEA417C28BF0CC070
:100A300048BF40F8042BC90728BF20F8022B48BF45
:100A400000F8012B00BD00002DE9F843040018D088
:100A50002078DFF83854C10740F1DB80686800F087
:100A60000C00042807D0686800F00C0008280AD1A0
:100A70006868C10307D500F063F93DD060680028BD
:100A80002CD1012050E16068B0F5803F04D1286886
:100A900040F48030286014E008B928680AE0B0F516
:100AA000A02F286806D140F480202860296841F4EE
:100AB000803105E020F480302860296821F480210D
:100AC0002960E86AA168000941EA0010E8626068EC
:100AD00068B1FFF70FFE064600F032F940F099804A
:100AE000FFF708FE801B6528F6D303201CE1FFF703
:100AF00001FE064600F024F900F08B80FFF7FAFDB6
:100B0000801B6528F6D3F0E7FFF7F4FDC01B022831
:100B100040F2AE80E9E7206970B101213160FFF752
:100B2000E9FD074600F007F940F08D80FFF7E2FD90
:100B3000C01B0228F6D9D8E73060FFF7DBFD074677
:100B400000F0F9F800F08680FFF7D4FDC01B022802
:100B5000F6D9CAE70860FFF7CDFD074600F072F945
:100B600000F08A80FFF7C6FDC01B0228F6D9BCE75B
:100B700008B9286A09E00528286A06D140F004006F
:100B80002862286A40F0010005E040084000286221
:100B9000286A20F00400286241F28938E06870B1C8
:100BA000FFF7A8FD8146286A00F04DF940F09480D7
:100BB000FFF7A0FDA0EB09004045F4D395E7FFF750
:100BC00099FD8146286A00F03EF900F08580FFF724
:100BD00091FDA0EB09004045F4D386E7FFF78AFDBD
:100BE000C01B022840F28B807FE7FFF783FD001BCC
:100BF000022840F2948078E700F0A7F8044600F05D
:100C000095F800F09080FFF775FD001B0228F6D9DB
:100C10006BE72078DFF8806281071BD5686810F0E9
:100C20000C0F09D0686800F00C0008287FF473AF3F
:100C30006868C1033FF56FAF00F07DF81CBF206905
:100C400001287FF41EAF2868616920F0F80040EAAF
:100C5000C1002860207801070ED5A069DFF83C129A
:100C600000283FF477AF01220A60FFF743FD0746F3
:100C700000F0E8F83FF448AF2078410731D5E86943
:100C80000027C10009D4E86940F08050E8610127DD
:100C9000E86900F0805000900098DFF80482D8F8EE
:100CA0000000C10513D4D8F8000040F48070C8F8E3
:100CB0000000FFF71FFD8146D8F80000C10506D4EB
:100CC000FFF718FDA0EB09006528F5D30DE7E068F4
:100CD00001287FF44DAF54E71FB1E86920F0805040
:100CE000E861E069F8B1696801F00C0108293FF496
:100CF000C8AE02287FF480AF00F027F8074600F066
:100D000015F87FF46BAF6A68606A216A22F4741286
:100D100002430A436A60012000F018F8044600F01C
:100D200005F83FF462AF0020BDE8F2832868C0F305
:100D30004060002870472868C0F3400000287047D2
:100D40002868C0F340400028704700203066FFF755
:100D5000D1BC2DE9F0410400884667D0514E00F027
:100D60006CF802D200F064F860D12078474D81071A
:100D700005D56A68A06822F0F00202436A60217813
:100D8000C8074BD56168012903D12868C0F34040EA
:100D900004E00229286803D1C0F3406018B945E097
:100DA00000F051F842D06868800841EA800169602B
:100DB000FFF7A0FC07466868616800F00C00B0EB24
:100DC000810F2BD0FFF796FCC01B41F2893188427E
:100DD000F1D3032020E02078410705D56A68E06858
:100DE00022F4E06202436A602178080706D5696848
:100DF000206921F4605141EAC001696000F028F8DF
:100E00006968294AC1F30311515C214AC840106046
:100E1000002000F05FF80020BDE8F081306800F0AD
:100E200007008045D7D200F003F8D4D00120F3E7C3
:100E30003168C90848EAC1013160306800F0070034
:100E400040457047686AC0F34000002870470000C2
:100E500010B516490A6802F00C00082814D100BF2A
:100E600014A3C2F38340D203185C896A09D500BF7A
:100E700014A4084B01F00F01625CB3FBF2F2504383
:100E800010BD0B49484310BD024810BD0010024080
:100E90000C00002000127A0000004242800442420E
:100EA0000070004000200240C01200080410024000
:100EB00000093D0002030405060708090A0B0C0D92
:100EC0000E0F10100102030405060708090A0B0C97
:100ED0000D0E0F1038B50D4D0D4B2A7804464FF40A
:100EE0007A711868B1FBF2F2B0FBF2F0FFF771FD16
:100EF00050B9102C08D2002221464FF0FF30FFF7E6
:100F000041FDAC60002032BD012032BD0000002058
:100F10000C00002010B596B000F0D4F800F0A0F856
:100F200001A81421FFF712FC4648016841F4003182
:100F300001601324026802F40032009200990268F2
:100F400042F4002202600122006800F400200090B8
:100F50004FF40161009800F07FF800224FF4074140
:100F600000F07AF848F610710191012200210391F6
:100F70000491029201A94FF09040FFF707FC402036
:100F8000002101900291039101A92F48FFF7FEFB78
:100F90002E482F4901604FF482724FF4E0614260A5
:100FA000C16002220121026141614FF400722821D7
:100FB0008261C16100238022072183600262436253
:100FC0008362C16203634363FFF7DEF800F0BAF89F
:100FD00000F0DDF800F0F4F805A81E49442200F006
:100FE0000FF9684632A1142200F00AF901221021FB
:100FF00000F032F8132205A9684600F001F900E07C
:10100000FEDC0021684600F0C4F84FF4167000F0D2
:1010100003F901201DF800200DEB0003401C1328EC
:1010200003F8012CF6DB05A8015D8DF81210641C95
:10103000442CE5D14FF4487000F0EEF800F0A7F82A
:10104000DFE70000141002400008004810000020F4
:1010500000300140D01200084FF09040FFF765BC0F
:1010600018B58FB005A82821FFF770FB684614213A
:10107000FFF76CFB0121102209910A924FF46011D5
:10108000002202240D920E9105940C9405A8FFF7FE
:10109000DBFC0F204FF4806100900022039102924C
:1010A0000492019402216846FFF753FE10B010BD70
:1010B0002020202020202020202020202020202030
:1010C0002020200080B50748016841F01001016030
:1010D0000320FFF74AFC0020FFF7FCFEFFF7B6FAFB
:1010E000002002BD00200240E52803D101290BD1D8
:1010F00086207047E42803D1012905D18420704758
:10110000F62804BF0129942070471CB50446084600
:101110002146FFF7E9FF00F00F020009002C0CBF89
:101120001F215F218DF800108DF801208DF802003D
:101130004FF47A73032269460148FFF77AF813BD2A
:101140001000002080B53A2100F037F8092100F0A6
:1011500034F8062100F031F81E2100F02EF8392174
:1011600000F02BF81B2100F028F86E2100F025F884
:10117000572100F022F8722100F01FF8382100F00A
:101180001CF8BDE804400F21FFE70020BDE7012166
:10119000FBE770B504468039C9B200F00EF820466E
:1011A00000F04EF80546002604E0A15D0120FFF79F
:1011B000ACFF761CAE42F8DB70BD0020A5E7000056
:1011C0000D48016821F080710160026842F0807270
:1011D00002600A480168490849000160002102686C
:1011E00042F001020260416000BF00BF00BF4068E2
:1011F000401E8041C00F7047FCED00E0001000E091
:101200004AB1000011F8013B521E00F8013B1CBF1F
:1012100011F8013BF8E7704738B50446FFF76AFA62
:1012200014F1010F054602D0044801786418FFF755
:1012300061FA401BA042FAD331BD00BF000000207C
:1012400000F1010310F8011B11B110F8011BFBE7BD
:10125000C01A704710B51448144A016841F470016F
:1012600001601068124940F0010010605368114895
:101270000B4053600023146804401460116821F48B
:1012800080211160506820F4FE005060D06A00098F
:101290000001D062116B08480140116393604FF068
:1012A00000600649086010BD88ED00E000100240B3
:1012B0000CC07FF8FFFFF6FECCFC00FF08ED00E05D
:1012C00000000000000000000102030406070809F6
:1012D00048656A20416E6465727320536AF66772CE
:1012E000656E20E47220736A756B20696461672003
:1012F00073E52068616E206B616E20696E746520F5
:101300006B6F6D6D612074696C6C206B6F6E746FA8
:101310007265742E30B450F8041B79B102684368CA
:1013200002440830DC0744BFA9F10104E31852F875
:10133000045B43F8045B091FF9D1ECE730BC70474C
:1013400010B5074979441831064C7C44163404E042
:101350000A68081D114488470146A142F8D110BD12
:101360002C0000004C0000004EF68851CEF2000127
:10137000086840F470000860BFF34F8FBFF36F8FB1
:101380004FF00070E1EE100A70470000C7F3FFFF56
:1013900064000000100000200000000079FFFFFF43
:1013A0001000000094000000000000200000000079
:1013B0007047FEE7FEE7FEE7FEE7704770477047BD
:1013C00000F006B80148FEF7FABF00001000002048
:1013D0000248416802788A18426070470000002085
:1013E00000F00DF8002801D0FFF7AAFFAFF300804E
:1013F0000020AFF30080FFF78DFD00F002F8012020
:10140000704700F001B800000746384600F002F8C7
:10141000FBE7000080B5AFF30080024A11001820FE
:10142000ABBEFBE7260002000148804701480047A9
:1014300055120008491400080100000000000000D7
:101440001000000000127A00AFF30080FFF78CFF5D
:10145000FFF7C6FFFFF7FEBFFFF7FEBFFFF7FEBFB8
:10146000FFF7FEBFFFF7FEBFFFF7FEBFFFF7FEBFB0
:10147000FFF7FEBFFFF7FEBFFFF7FEBFFFF7FEBFA0
:10148000FFF7FEBFFFF7FEBFFFF7FEBFFFF7FEBF90
:10149000FFF7FEBFFFF7FEBFFFF7FEBFFFF7FEBF80
:1014A000FFF7FEBFFFF7FEBFFFF7FEBFFFF7FEBF70
:1014B000FFF7FEBFFFF7FEBFFFF7FEBFFFF7FEBF60
:1014C000FFF7FEBFFFF7FEBFFFF7FEBFFFF7FEBF50
:1014D000FFF7FEBFFFF7FEBFFFF7FEBFFFF7FEBF40
:1014E000FFF7FEBFFFF7FEBFFFF7FEBFFFF7FEBF30
:1014F000FFF7FEBFFFF7FEBFFFF7FEBFFFF7FEBF20
:10150000FFF7FEBFFFF7FEBFFFF7FEBFFFF7FEBF0F
:10151000FFF7FEBFFFF7FEBFFFF7FEBFFFF7FEBFFF
:10152000FFF7FEBFFFF7FEBFFFF7FEBFFFF7FEBFEF
:10153000FFF7FEBFFFF7FEBFFFF7FEBFFFF7FEBFDF
:10154000FFF7FEBFFFF7FEBFFFF7FEBFFFF7FEBFCF
:08155000FFF7FEBFFFF7FEBF2D
:040000050800144992
:00000001FF
